:100000000C94BB010C94E7200C94BC200C94912020
:100010000C9466200C943B200C9410200C94E51F4B
:100020000C94BA1F0C94EC010C94EC010C94EC01B0
:100030000C94EC010C94EC010C94EC010C94EC018C
:100040000C94EC010C94EC010C94EC010C94EC017C
:100050000C94BC210C94EC010C94EC010C94122136
:100060000C94EC010C9486210C945C210C94EC0112
:100070000C94EC010C94EC010C94EC010C94EC014C
:100080000C94EC010C94EC010C94EC010C94EC013C
:100090000C94EC010C94EC010C94EC010C94EC012C
:1000A0000C94EC010C94EC010C94EC010C94EC011C
:1000B0000C94EC010C94EC010C94EC010C94EC010C
:1000C0000C94EC010C94EC010C94EC010C94EC01FC
:1000D0000C94EC010C94EC010C94EC010C94EC01EC
:1000E0000C94EC010C94050D0C94B61D0C945F114E
:1000F0000C94551B0C94B3110C94BE150C94B603C0
:100100000C944E0F0C94510B0C949A1D0C94E721F7
:100110000C9462020C9449040C9449080C941A0241
:100120000C943F020C9474060C94AB060C94C4031C
:100130000C9474020C946C020C947B1F0C94031EA0
:100140000C9428120C94531C0C94C8110C942C1F62
:100150000C9443020C945D060C94E01B0C94B70CB9
:100160000C94BA1E0C9415020C944A080C944D1F62
:100170000C94D21D0C9426180C943A160C94DE099B
:100180000C9493030C944B020C944C140C94BE06E8
:100190000C94B9060C94E30C0C9458020C941D13A7
:1001A0000C94BB060C94001D0C944A1E0C94AF14C6
:1001B0000C94A41C0C94E21A0C9474130C94681FF5
:1001C0000C94971C0C949A040C947E020C94520686
:1001D0000C9495140C942A080C945E020C9447021B
:1001E0000C94D4050C947A020C94A0150C945C1F0A
:1001F0000C946B100C9465160C946B0C0C94790297
:100200000C9439020C9470150C942E080C94700206
:100210000C9466020C94780C0C9498090C945D0F65
:100220000C94871F0C9454020C94BE050C94190274
:100230000C94FC030C94AF060C94501D0C943208E3
:100240000C94A2030C9472090C9442080C946B1445
:100250000C944E02000020002300260029002C00F0
:100260002F00320000010000030106010901000017
:100270000A0B02090C0D0E08070304010000000020
:10028000000000000000000000000000000000006E
:10029000000000000000000000001211100000002B
:1002A000000000000000000000000000000000004E
:1002B0000000000000002200250028002B002E0076
:1002C0003100340002010000050108010B010000AB
:1002D0002100240027002A002D00300033000101F6
:1002E0000000040107010A01010210202008081083
:1002F0002040102040800201020108040201010296
:10030000040810204080804020100804020180046E
:1003100002018040201008040201080402010102C9
:1003200004081020408001020408102040800505C8
:100330000505070508080808020202020A0A08085B
:100340000404040401010101010101010303030389
:1003500003030303040707070C0C0C0C0C0C0C0C18
:100360000202020206060606060606060B0B0B0B29
:100370000B0B0B0BE72111241FBECFEFD1E2DEBF29
:10038000CDBF00E00CBF13E0A0E0B2E0E2E6F9E58B
:1003900000E00BBF02C007900D92A83AB107D9F751
:1003A00025E0A8EAB3E001C01D92AE31B207E1F743
:1003B00011E0CBEBD1E000E006C021970109802FCE
:1003C000FE010E948A28CA3BD10780E00807A9F7EE
:1003D0000E9485220C94AF2C0C9400008CBD9DBD16
:1003E0000895813091052CF0843091051CF006971A
:1003F0005CF0089591E080E0623371050CF490E0C8
:10040000692F782FCB01089561157105D9F36436F2
:10041000710541F0CB0166EF7FEF0E947628625FA5
:100420007F4FF0CF61E070E0EDCFFC01818D928DC8
:100430000895089508958150823108F05AC0E82F38
:10044000F0E08827E95DFD4F8F4F0C948A28470222
:100450004B0239023F02430279024E025402580213
:100460005E02620266026C027002790274027A0213
:100470007E02809180008F77809380000895809124
:1004800080008F7DF9CF80918000877FF5CF84B584
:100490008F7784BD089584B58F7DFBCF8091B000A8
:1004A0008F778093B00008958091B0008F7DF9CF51
:1004B000809190008F7780939000089580919000B4
:1004C0008F7DF9CF80919000877FF5CF8091A0003C
:1004D0008F778093A00008958091A0008F7DF9CF41
:1004E0008091A000877FF5CF809120018F77809346
:1004F00020010895809120018F7DF9CF8091200106
:10050000877FF5CFCF93DF93282F30E0F901E259B1
:10051000FD4F8491F901E851FD4FD491F901E25D5D
:10052000FC4FC491CC23A1F081110E941B02EC2F3F
:10053000F0E0EE0FFF1FEC5AFD4FA591B491EC9146
:10054000ED2381E090E009F480E0DF91CF91089500
:1005500080E090E0FACF0F931F93CF93DF93EC01ED
:1005600089810E9482028C018B810E948202AC01EF
:100570008881882341F0012B89F081E090E0452BB0
:1005800041F080E006C0012B49F481E090E0452B6A
:10059000C1F3DF91CF911F910F91089582E090E018
:1005A000F8CF1F93CF93DF93282F30E0F901E25962
:1005B000FD4F8491F901E851FD4FD491F901E25DBD
:1005C000FC4FC491CC23A9F0162F81110E941B026D
:1005D000EC2FF0E0EE0FFF1FEC54FD4FA591B4910E
:1005E0008FB7F894EC91111108C0D095DE23DC93FD
:1005F0008FBFDF91CF911F910895DE2BF8CFCF935E
:10060000DF9390E0FC01E851FD4F2491825D9C4F07
:10061000FC0184918823D1F090E0880F991FFC01A0
:10062000E253FD4FA591B491FC01EC54FD4FC591EF
:10063000D49161110EC09FB7F8948C91E22FE09590
:100640008E238C932881E223E8839FBFDF91CF9193
:1006500008958FB7F894EC91E22BEC938FBFF6CF0F
:100660003FB7F8948091DC039091DD03A091DE0305
:10067000B091DF0326B5A89B05C02F3F19F0019666
:10068000A11DB11D3FBFBA2FA92F982F8827BC01EC
:10069000CD01620F711D811D911D42E0660F771F14
:1006A000881F991F4A95D1F708958F929F92AF9214
:1006B000BF92CF92DF92EF92FF924B015C010E94BA
:1006C00030036B017C010E9430036C197D098E0997
:1006D0009F09683E734081059105A8F321E0821AC5
:1006E0009108A108B10888EEC80E83E0D81EE11C6D
:1006F000F11C81149104A104B10429F7FF90EF903B
:10070000DF90CF90BF90AF909F908F9008952FB7BC
:10071000F8946091D8037091D9038091DA03909195
:10072000DB032FBF0895FC01538D448D252F30E04E
:10073000842F90E0821B930B541710F0CF960895EE
:1007400001970895FC01918D828D981761F0A28D1B
:10075000AE0FBF2FB11D5D968C91928D9F5F9F73E1
:10076000928F90E008958FEF9FEF0895FC01918D97
:10077000828D981731F0828DE80FF11D858D90E004
:1007800008958FEF9FEF0895FC01918D228D892FA1
:1007900090E0805C9F4F821B91098F739927089589
:1007A00085E394E00E94C40321E0892B09F420E052
:1007B000822F0895FC01A48DA80FB92FB11DA35A53
:1007C000BF4F2C91848D90E001968F739927848F71
:1007D000A689B7892C93A089B1898C918370806494
:1007E0008C93938D848D981306C00288F389E02D35
:1007F00080818F7D80830895EF92FF920F931F93E6
:10080000CF93DF93EC0181E0888F9B8D8C8D9813C3
:100810001AC0E889F989808185FF15C09FB7F894CF
:10082000EE89FF896083E889F9898081837080641B
:1008300080839FBF81E090E0DF91CF911F910F9166
:10084000FF90EF900895F62E0B8D10E00F5F1F4F75
:100850000F731127E02E8C8D8E110CC00FB607FC84
:10086000FACFE889F989808185FFF5CFCE010E9412
:10087000DA03F1CFEB8DEC0FFD2FF11DE35AFF4FA3
:10088000F0829FB7F8940B8FEA89FB8980818062A0
:10089000CFCFCF93DF93EC01888D8823B9F0AA895D
:1008A000BB89E889F9898C9185FD03C0808186FD2B
:1008B0000DC00FB607FCF7CF8C9185FFF2CF80817A
:1008C00085FFEDCFCE010E94DA03E9CFDF91CF9112
:1008D000089580E090E0892B29F00E94D0038111D7
:1008E0000E94000080E090E0892B49F080E090E0D9
:1008F000892B29F00E94000081110E94000080E0F5
:1009000090E0892B49F080E090E0892B29F00E944B
:10091000000081110E94000080E090E0892B49F0E6
:1009200080E090E0892B29F00E94000081110C9456
:1009300000000895AF92BF92CF92DF92EF92FF92A4
:100940000F931F93CF93DF936C017B018B01040FF7
:10095000151FEB015E01AE18BF08C017D10759F093
:100960006991D601ED91FC910190F081E02DC601D5
:100970001995892B79F7C501DF91CF911F910F91BF
:10098000FF90EF90DF90CF90BF90AF900895FC0163
:1009900020812EBD9B012150310941F051810DB4C0
:1009A00007FEFDCF4EB55EBD4193F5CF6150710995
:1009B000860F971F0DB407FEFDCF2EB5FC012083D7
:1009C0000895E0912904F0912A04808190912804EF
:1009D000892B80830895E0912904F0912A04908165
:1009E0008091280480958923808308958EBD00001E
:1009F0000DB407FEFDCF8EB50895AF92BF92CF9292
:100A0000DF92EF92FF920F931F93CF93DF9300D06B
:100A100000D01F921F92CDB7DEB78C017B016A0117
:100A200080912C048333E1F45801A40EB51EA01666
:100A3000B10609F46FC00E94EB0480EF0E94F60437
:100A4000812F0E94F604802F0E94F6040F5F1F4F33
:100A5000F70181917F010E94F6040E94E104E7CF33
:100A60005B01A40EB51E8433C1F40E94EB0419830C
:100A70000A838D2D80688B83CC8264E070E0CE0188
:100A800001960E94C704AE14BF0409F441C0F701E7
:100A900081917F010E94F604F6CF0E94EB040F3F84
:100AA000110509F028F419820A8384E08B830CC0B5
:100AB00017FD17C019820A8333E0169507953A95FA
:100AC000E1F7007E0C600B8386E0C816D104A0F528
:100AD000F701DE011496EA15FB0599F081918D93DB
:100AE000FACFC80126E0969587952A95E1F7807E92
:100AF00019830A830115104C10F48461D7CF8C61DF
:100B0000D5CFB6016D5F7F4FCE0101960E94C7041D
:100B10000E94E104C60128960FB6F894DEBF0FBE0E
:100B2000CDBFDF91CF911F910F91FF90EF90DF909C
:100B3000CF90BF90AF90089563E070E0CE01019632
:100B40000E94C704F70181917F010E94F604AE1450
:100B5000BF04C1F7DDCFCF93DF931F92CDB7DEB7D0
:100B6000898341E050E0BE016F5F7F4F90E080E0FD
:100B70000E94FD040F90DF91CF910895CF93DF93F2
:100B80001F92CDB7DEB76983DC01ED91FC91028045
:100B9000F381E02D41E050E0BE016F5F7F4F19957A
:100BA0000F90DF91CF910895CF93DF931F92CDB730
:100BB000DEB76983DC01ED91FC910280F381E02DC9
:100BC00041E050E0BE016F5F7F4F19950F90DF91BC
:100BD000CF91089590E020912C04233339F40C96A2
:100BE000982F990F990F990F80E008954896F8CFA4
:100BF000DA01E0912D04F0E0FE2FEE27E60FF71F5B
:100C000090E0982F8827A901BD018E0F9F1F0C949B
:100C1000FD04CF93DF931F921F92CDB7DEB7798388
:100C20006A8322E030E0AE014F5F5F4F60E170E029
:100C30000E94F8050F900F90DF91CF910895CF9308
:100C4000DF931F921F92CDB7DEB779836A8322E0CC
:100C500030E0AE014F5F5F4F64E070E00E94F80546
:100C60000F900F90DF91CF910895CF93DF931F9254
:100C7000CDB7DEB720912D0430E0322F2227260F8A
:100C8000371F90E0982F8827498341E050E0BE014C
:100C90006F5F7F4F820F931F0E94FD040F90DF91C3
:100CA000CF910895FC019485FB018485981303C0BE
:100CB00081E0983008F080E00895CF93DF931F9291
:100CC000CDB7DEB76983DC01ED91FC910280F38141
:100CD000E02D41E050E0BE016F5F7F4F19950F900E
:100CE000DF91CF9108950895FF920F931F93CF93B3
:100CF000DF93EB01FC01178A168A2A81211109C0B2
:100D00002B81211106C02C81211103C02D812223AA
:100D100001F141155105E9F08A01FC01F08C80E5F3
:100D200091E00E94EE01AE014E5F5F4F24E030E0A3
:100D30006CE070E08F2D0E94F805B8018F2D0E94A5
:100D4000090681E090E0DF91CF911F910F91FF9014
:100D5000089580E0F7CFFC01768765870895DC0170
:100D6000ED91FC91068CF78DE02D199591E0892786
:100D70000895862F089581E08627089521E0FC01DB
:100D80008485883008F020E0822F08956093BB03AB
:100D90007093BC038093BD039093BE03645D7E4F4C
:100DA0008F4F9F4F6093B7037093B8038093B9033D
:100DB0009093BA0382E090E09093C6038093C503BA
:100DC0000E9487036093B3037093B4038093B503C9
:100DD0009093B6030895CF92DF92EF92FF920F9314
:100DE0001F930E9487038B019C01C090B303D09096
:100DF000B403E090B503F090B6036091BB0370912B
:100E0000BC038091BD039091BE030C191D092E09EE
:100E10003F09083E134021053105E0F0DC01CB011C
:100E20000196A11DB11D8093BB039093BC03A093B9
:100E3000BD03B093BE03B701A60148515C4F6F4F8D
:100E40007F4F4093B3035093B4036093B503709303
:100E5000B603C7CF1F910F91FF90EF90DF90CF9017
:100E600008954F925F926F927F928F929F92AF926E
:100E7000BF92CF92DF92EF92FF920F931F93CF9387
:100E8000DF934B015C018091AF039091B003A0917F
:100E9000B103B091B20388159905AA05BB0509F401
:100EA000C6C08CE3C82ED12CE12CF12CC501A701C2
:100EB00096010E9454286093A803CA01B901A701B2
:100EC00096010E9454286093A903C501B40120E152
:100ED0003EE040E050E00E945428CA01B90128E1F8
:100EE00030E040E050E00E9454286093AA03C5011E
:100EF000B40120E831E541E050E00E945428690146
:100F00007A01CA01B9016C5F7F4F8F4F9F4F27E075
:100F100030E040E050E00E9454286F5F6093AB03E4
:100F2000412C512C320140E004E610E0C0E9D1E050
:100F3000242F30E02E54384FF901E370FF2730970B
:100F4000F9F4C901B8010E947628892B31F4C9014E
:100F5000BE010E947628892B99F48EE691E0A0E0EC
:100F6000B0E0480E591E6A1E7B1ED301C201AA279B
:100F7000BB27C816D906EA06FB0638F04F5FD8CF64
:100F80008DE691E0A0E0B0E0ECCF4093AE03C90164
:100F900064E670E00E947628EC01C90160E971E026
:100FA0000E947628309721F42097D9F40097C9F051
:100FB0004DE651E060E070E0441A550A660A770A8F
:100FC000C418D508E608F708A5E4B2E020E021300F
:100FD00069F43097E9F5209711F40097C9F54DE1D0
:100FE00006C04EE651E060E070E0E6CF4C9150E084
:100FF00070E060E031E0320FC416D506E606F70671
:1010000040F0C41AD50AE60AF70A1196232F3C309D
:10101000F1F62F5F2093AD03C394C092AC0380928E
:10102000AF039092B003A092B103B092B203DF91EC
:10103000CF911F910F91FF90EF90DF90CF90BF90D5
:10104000AF909F908F907F906F905F904F9008959A
:101050004CE1CDCFFC01848595850895FC01848900
:10106000958908952FEB32E0FC0131832083FB0149
:101070004089518962897389FC0142835383648367
:1010800075830895DC01ED91FC91048CF58DE02DC4
:101090001994089590E080E008950F931F93CF93E3
:1010A000DF938C01EA01662339F1FC018089918983
:1010B00084179507A9F1FA013296EE0FFF1FE00F92
:1010C000F11F0190F081E02D60E080810E94D1024B
:1010D00087E10E948202892B19F1F80113A212A262
:1010E00060E087E10E94D10260E089E1DF91CF9169
:1010F0001F910F910C94D10261E087E10E94D1020F
:1011000061E089E10E94D102D7FD0AC02296CC0F8E
:10111000DD1FC00FD11FE881F98161E08081E6CF3A
:10112000DF91CF911F910F910895FB01EE0FFF1FEB
:101130004115510569F04130510591F0E80FF91F53
:1011400082E090E095878487F894578B468B13C094
:10115000E80FF91F1586148660E080810C94D10297
:10116000E80FF91F55874487F894178A168A61E0BB
:1011700080810E94D102789408958F929F92AF92BD
:10118000BF92CF92DF92EF92FF920F931F93CF9374
:10119000DF93EC017B018C01045F1F4F912C812CAC
:1011A00081E0E114F10409F480E0F80181938F01FA
:1011B0005401F1E0AF1AB108CA88DB8870E060E042
:1011C000E114F10439F0F401EE0FFF1FEC0FFD1FE5
:1011D00060817181C4010E94F101AC01B501C601B9
:1011E0000E9495088FEF881A980AE6E08E169104FF
:1011F000B9F6DF91CF911F910F91FF90EF90DF90A3
:10120000CF90BF90AF909F908F9008959F92AF9294
:10121000BF92CF92DF92EF92FF920F931F93CF93E3
:10122000DF938C01EB017A011C161D069CF15C0119
:101230006C01D0E0C0E099249394F501E192F19221
:101240005F01F601E114F10419F51486209769F0A5
:10125000B701CE010E94F101AC01BE0161507109DC
:10126000F801828993890E9495082196FFEFCF1A91
:10127000DF0AC630D10509F7DF91CF911F910F9199
:10128000FF90EF90DF90CF90BF90AF909F90089528
:101290009486DCCFFB01EE0FFF1FE00FF11F51839F
:1012A0004083F801E60FF71F452BC9F41486B701F8
:1012B000CE010E94F101BE0161507109AC01F8013B
:1012C00082899389DF91CF911F910F91FF90EF90C9
:1012D000DF90CF90BF90AF909F900C94950881E0E5
:1012E0008487E5CFE091CF03F091D0033097F9F0F8
:1012F0002289338921153105D1F0F894D90181E093
:1013000090E0FC01EE0FFF1FE20FF31F44855585AF
:101310004230510534F04689578993965C934E9339
:101320009297019612968530910559F77894089511
:10133000CF92DF92EF92FF920F931F93CF93DF93A1
:10134000E091CF03F091D003309779F1C288D38830
:10135000C114D10451F1E60110E000E093E2E92E5E
:10136000F12CF8013696EE0FFF1FEC0DFD1D80816C
:1013700091810297A4F088A199A1009781F001972B
:1013800099A388A3892B59F461E088810E94D10236
:10139000C7010197F1F760E088810E94D1020F5FD9
:1013A0001F4F229605301105E1F6DF91CF911F9175
:1013B0000F91FF90EF90DF90CF900895CF92DF9242
:1013C000EF92FF92CF93DF930E949809E091CF03B1
:1013D000F091D003309739F1C489D589209719F15C
:1013E0008C810E948202892B29F561E08DE00E94A8
:1013F000D10221E030E08E819F818217930709F1AD
:101400001E861F86188A198A3F832E83888D998DA0
:1014100002974CF48E8D9F8D181619060CF06AC039
:1014200001979F8F8E8FDF91CF91FF90EF90DF908C
:10143000CF90089560E08DE00E94D10230E020E07E
:10144000DACF8E859F85A889B98921153105B9F430
:101450004A855B85052E000C660B770B6C017D01C0
:10146000EFEFCE1ADE0AEE0AFE0AC416D506E6062D
:10147000F706BCF081E090E099878887C5CF4C855E
:101480005D85052E000C660B770B6C017D01EFEF7F
:10149000CE1ADE0AEE0AFE0AC416D506E606F706DE
:1014A00044F40196A11DB11D8E879F87A88BB98B2F
:1014B000ABCF88859985019709F0A6CF888D998D46
:1014C0001986188601968130910589F0998F888F49
:1014D000488D598D8E899F89841795070CF094CF7C
:1014E000198E188E8A899B899F8F8E8F8DCF82E06F
:1014F00090E0ECCF88810E948202892B61F58CA557
:101500009DA581309105A1F0029709F08CCF81E073
:1015100090E0998F888F8EA5882309F484CF8CA1C1
:101520009DA1AEA1BFA188A399A3AAA3BBA37BCF72
:101530000E94EB068091C5039091C603029739F78C
:101540000E94EB060E9431078091AA038750990BF5
:101550000A97E8F668CF88A199A1AAA1BBA118169D
:1015600019061A061B060CF05ECF0197A109B109F6
:1015700088A399A3AAA3BBA3892B8A2B8B2B09F041
:1015800052CF198E188E4FCFFB0101900020E9F742
:101590003197AF01461B570BDC01ED91FC910280A6
:1015A000F381E02D19948F929F92AF92BF92EF92A8
:1015B000FF920F931F93CF93DF93CDB7DEB7A19721
:1015C0000FB6F894DEBF0FBECDBF7C01FA01CB0190
:1015D00019A2223008F42AE08E010F5D1F4F822EDF
:1015E000912CB12CA12CBF01A50194010E9454287B
:1015F000F901CA016A300CF5605DD8016E938D0166
:10160000232B242B252B79F790E080E0109721F0F5
:10161000BD01C7010E94C40AA1960FB6F894DEBFAF
:101620000FBECDBFDF91CF911F910F91FF90EF9033
:10163000BF90AF909F908F900895695CDECFCF925E
:10164000DF92EF92FF92CF93DF936B017C016DE20B
:1016500085E394E00E94FC03EC0144275527BA017E
:101660004C195D096E097F092AE085E394E00E9428
:10167000D30A8C0F9D1FDF91CF91FF90EF90DF90E9
:10168000CF900895AC01990F660B770B77FF04C0DC
:10169000CB01BA010C941F0B2AE085E394E00C9473
:1016A000D30A8F929F92AF92BF92CF92DF92EF9226
:1016B000FF920F931F93CF93DF937C01EB016C019B
:1016C00082E0C80ED11C4701E5E08E0E911C10E0AF
:1016D00000E0F60141916F0150E070E060E02AE027
:1016E000CE010E94D30A5C01E881F9810190F0816A
:1016F000E02D6EE2CE0119958A0D9B1D080F191F72
:10170000C814D90431F7F701458150E070E060E07A
:101710002AE0CE010E94D30A800F911FDF91CF9162
:101720001F910F91FF90EF90DF90CF90BF90AF90FF
:101730009F908F900895AF92BF92CF92DF92EF92D9
:10174000FF920F931F93CF93DF9300D01F92CDB7DB
:10175000DEB78C016B017A0180912C048333E9F4AC
:101760005B016801C40ED51EC016D106A9F10E9406
:10177000EB048FE00E94F604812F0E94F604802F74
:101780000E94F6040F5F1F4F80E00E94F604F501EF
:1017900081935F010E94E104E7CF843369F50E94E1
:1017A000EB0419830A838F2D8F778B83EC8264E09F
:1017B00070E0CE0101960E94C704A70170E060E0CE
:1017C000C6010E94CB29E114F10421F0B701C60142
:1017D0000E94C7040E94E104C7010F900F900F9070
:1017E0000F90DF91CF911F910F91FF90EF90DF90BD
:1017F000CF90BF90AF9008950E94EB040F3F11056A
:1018000009F030F419820A831B8263E070E0D1CFC3
:1018100017FD0BC019820A8333E0169507953A9598
:10182000E1F7007E08600B83F0CFC80126E09695B3
:1018300087952A95E1F7807E19830A830115104C5C
:1018400018F480618B83E1CF8861FCCFCF93DF9365
:101850001F92CDB7DEB720912D0430E0322F222722
:10186000260F371F90E0982F882741E050E0BE01F7
:101870006F5F7F4F820F931F0E949B0B89810F9098
:10188000DF91CF910895CF93C82F462F61E070E08C
:101890000E94350661E070E08C2F0E94260C8111B9
:1018A000F9CFCF910895CF93C82F80E591E00E94A2
:1018B000EE0168E070E08C2FCF910C94430CCF9335
:1018C000C82F80E591E00E94EE0160E170E08C2F6E
:1018D000CF910C94430CCF93DF93EC01888D88302B
:1018E00020F40E945F0C88E0888FDF91CF910895EB
:1018F000CF93FC01C08D80E591E00E94EE0160E293
:1019000070E08C2F0E94430C62E070E08C2F0E94EC
:10191000260C84FD16C062E070E08C2F0E94260C1D
:1019200083FF0AC048E162E070E08C2F0E94350618
:1019300080E090E0CF91089580E591E00E94EE0173
:10194000E3CF40E162E070E08C2F0E94350681E039
:10195000F0CF63E070E00C94260CCF93C82F80E5A5
:1019600091E00E94EE018C2FCF910C94A90CEF9284
:10197000FF920F931F93CF93DF937C0180912C04F0
:10198000D4E0833309F0D8E008E114E0C0E0F801C6
:10199000219131918F01F7018481958128173907B1
:1019A00029F0CF5FDC13F3CF80E006C08C2F0E94BC
:1019B000AD0C8431B1F781E0DF91CF911F910F9190
:1019C000FF90EF900895CF93DF93EC018C858830E2
:1019D000D0F40E94AD0C843189F0882379F08831ED
:1019E00069F021E08C3159F4E881F9810084F185B6
:1019F000E02DCE01199521E0892B09F420E0822FFA
:101A0000DF91CF91089580E0FBCFCF92DF92EF92EC
:101A1000FF92CF93DF93EC018C85883068F40E94AD
:101A2000530C0E9487036B017C018C850E94AD0CD6
:101A3000811109C088E08C87DF91CF91FF90EF90F2
:101A4000DF90CF90089561E070E080E090E00E9428
:101A500055030E948703AB01BC014C195D096E0957
:101A60007F098D859E85B0E0A0E0481759076A0779
:101A70007B07D8F28C850E945F0CDCCFCF93DF937D
:101A80001F92CDB7DEB741E050E0BE016F5F7F4FE0
:101A900090E080E00E949B0B89810F90DF91CF91B5
:101AA0000895CF93DF93C4E1D0E00E943E0D8823D8
:101AB00061F061E070E080E090E00E9455032197C2
:101AC000A1F780E0DF91CF91089581E0FBCFCF9225
:101AD000DF92EF92FF920F931F93CF93DF93CDB7D7
:101AE000DEB7C454D1090FB6F894DEBF0FBECDBF28
:101AF000FC0182819381A481B58123968CAF9DAF37
:101B0000AEAFBFAF239721E023962FAF2397239645
:101B10004CAD5DAD6EAD7FAD23974BAB5CAB6DABAC
:101B20007EAB89AF9AAFABAFBCAF8DA79EA7AFA777
:101B3000B8AB28AB4DA55EA56FA578A94FA358A754
:101B400069A77AA72EAB4BA95CA96DA97EA949A369
:101B50005AA36BA37CA38B8F9C8FAD8FBE8F4FEB53
:101B600052E05C8B4B8B3FEF3D8B3E8B3F8B188E57
:101B70005E874D872AA7CFA0D8A4E9A4FAA4CF8670
:101B8000D88AE98AFA8A2CA309A11AA12BA13CA11F
:101B900009871A872B873C875A8349838B839C83C9
:101BA000AD83BE8380912E0481119DC060E372E0FD
:101BB00080E090E00E9455031FB7F89480912B04B9
:101BC000811127C0E3E6F3E08491EDE1F3E0949125
:101BD000E82FF0E0EE0FFF1FE253FD4FA591B49107
:101BE000EC91E92321F461E085E30E94D10261E0F8
:101BF00085E30E94FF028CB580618CBD8CB580644A
:101C00008CBD61E084E30E94FF0261E083E30E94F7
:101C1000FF0280912B048F5F80932B041FBFE8E3AA
:101C2000F3E0E491F0E0EE0FFF1FEC54FD4F8591DF
:101C3000949190932A0480932904E2EFF2E0E491D6
:101C4000E093280461E08AE00E94FF020E94E10420
:101C500080E591E00E94EE0184E380932C0480E80B
:101C60000E94AB050E94510D882309F472C088E0E0
:101C70000E94AB050E943E0D883009F06AC080E1E9
:101C80000E94AB050E943E0D803109F062C080E0E9
:101C90000E94AB050E943E0D182F81115AC041E0F1
:101CA00050E0BE016D5B7F4F8FE190E00E949B0B87
:101CB00024968FAD2497833009F04BC080E4809345
:101CC0002D0442E06EE170E0812F0E94350642E073
:101CD0006FE170E0812F0E9435061F5F183089F791
:101CE00081E080932E0480E591E00E94EE0146E0C1
:101CF00050E06CE172E089E090E00E94FD0444E075
:101D000050E0BE016D5F7F4F8FE090E00E94FD04C8
:101D100044E050E0BE01615F7F4F81E090E00E94AF
:101D2000FD0444E050E0BE016B5E7F4F85E090E033
:101D30000E94FD0481E08C8789859A85AB85BC85EE
:101D40008093EC049093ED04A093EE04B093EF0421
:101D50006FC087E380932C0480E80E94AB050E944B
:101D6000510D882339F188E00E94AB050E943E0D99
:101D7000883001F580E10E94AB050E943E0D182FCE
:101D80008031C1F480E00E94AB050E943E0D8111BC
:101D900011C041E050E0BE016D5B7F4F89E390E0F0
:101DA0000E949B0B24968FAD2497843019F41093D6
:101DB0002D0496CF83E380932C0480E80E94AB052A
:101DC0000E94510D882391F180E10E94AB050E9491
:101DD0003E0D803159F582E10E94AB050E943E0D17
:101DE000823121F580E00E94AB050E943E0D8111F9
:101DF0001DC084E080932D0415E525961FAF25971F
:101E000041E050E0BE016C5B7F4F8BE190E00E94AF
:101E1000FD0424961FAF249741E050E0BE016D5BA6
:101E20007F4F8AE190E00E94FD045ACF10922C046B
:101E3000CC5BDF4F0FB6F894DEBF0FBECDBFDF9196
:101E4000CF911F910F91FF90EF90DF90CF90089569
:101E50001F93CF93DF931F92CDB7DEB7182F80E586
:101E600091E00E94EE01812F0E94EA0527E0129F77
:101E7000F0011124E052FC4F22813381377041E0A0
:101E800050E0BE016F5F7F4F820F931F0E949B0B3C
:101E900089810F90DF91CF911F910895FC01808D72
:101EA000883040F4218D328D232B21F00E94280FA1
:101EB00090E008958FEF9FEF0895CF93DF93FC019B
:101EC0002485283028F08FEF9FEFDF91CF91089580
:101ED000EC010190F081E02D0084F185E02D199551
:101EE000892B89F38C850E94280F90E0EECFDA01D0
:101EF000E0912D04F0E0FE2FEE27E60FF71F90E0B3
:101F0000982F8827A901BD018E0F9F1F0C949B0B52
:101F10008F929F92AF92BF92CF92DF92EF92FF92F9
:101F20000F931F93CF93DF93CDB7DEB760970FB6B4
:101F3000F894DEBF0FBECDBF7C0190912C049111AF
:101F400015C018E0812F60960FB6F894DEBF0FBE63
:101F5000CDBFDF91CF911F910F91FF90EF90DF9058
:101F6000CF90BF90AF909F908F90089508E09333EB
:101F700009F404E06B0180E591E00E94EE019E010E
:101F80002F5F3F4F5901490110E0812F0E94A90C9A
:101F9000F40181934F018823C1F01F5F0113F5CF36
:101FA00000E0F50181915F018D3149F0883139F010
:101FB0008A51823020F00F5F1013F3CFC2CF60E15F
:101FC00070E0802F0E94430C102FA12EB12CF50140
:101FD000EE0FFF1FE85EFB4F1182108283EE93E04D
:101FE0000197F1F742E870E060E0812F0E9435062A
:101FF0004FEF62E070E0812F0E943506B601C114F8
:10200000D10491F480911A0290911B0201968115DE
:10201000F0EC9F0708F45CC090931B0280931A02B7
:1020200060911A0270911B02812F0E941F0686E0A8
:10203000E8E2F2E0DE01199601900D928A95E1F74F
:10204000F70183818F778C8784818D8785818E8747
:10205000A7014E5F5F4F24E030E06CE070E0812F1D
:102060000E94F805B601812F0E94090626E030E0A3
:10207000AE01475F5F4F66E070E0812F0E94F80578
:1020800061E070E0812F0E94430C27E02A9DC0018F
:102090002B9D900D11249C0120523C4F7901F90198
:1020A0001182108222E030E0AE01415F5F4F68E2B2
:1020B00070E0812F0E94770F8F8598899827892754
:1020C0009827F701938382831682158214823ACF70
:1020D00080E090ECA1CFCF92DF92EF92FF920F932E
:1020E0001F93CF93DF9300D000D0CDB7DEB78C0124
:1020F0006B017A01FC01808D883010F40E945F0C26
:102100008FEB92E09A838983F60182819381A48187
:10211000B5818B839C83AD83BE83B701CE010196CD
:102120000E94880FF801808F8830A0F4F586E4863D
:10213000128E118E81E026960FB6F894DEBF0FBE88
:10214000CDBFDF91CF911F910F91FF90EF90DF9066
:10215000CF90089580E0EFCF7F928F929F92AF92C1
:10216000BF92CF92DF92EF92FF920F931F93CF9384
:10217000DF931F921F92CDB7DEB7782E8B014A01F5
:10218000590122E030E0AE014F5F5F4F64E270E042
:102190000E94770FE980FA80FE24EF24FE24E00EEF
:1021A000F11E9701377040912C04072D10E0433346
:1021B00009F042C0085F1F4F102F0027110F110FA9
:1021C000110FC901800F911F4733C9F1A9014A0DB1
:1021D0005B1D4130584098F160E078E06B01C21A15
:1021E000D30AA601B4010E94FD04A5014C195D09A2
:1021F000B4016C0D7D1DC8010E94FD04EA0CFB1C9E
:10220000F982EA8222E030E0AE014F5F5F4F64E284
:1022100070E0872D0E94F8050F900F90DF91CF910D
:102220001F910F91FF90EF90DF90CF90BF90AF90F4
:102230009F908F907F900895005F1F4FBDCFA501A5
:10224000B401DACFEF92FF921F93CF93DF931F92E7
:102250001F92CDB7DEB7182F22E030E0AE014F5FFE
:102260005F4F60E270E00E94770FE980FA80FE2401
:10227000EF24FE2422E030E0AE014F5F5F4F60E2CA
:1022800070E0812F0E94770F89819A819827892792
:102290009827E816F90689F487E0189FF0011124C1
:1022A000E052FC4FF582E482C7010F900F90DF915E
:1022B000CF911F91FF90EF9008957C01DBCF9F920B
:1022C000AF92BF92CF92DF92EF92FF920F931F9344
:1022D000CF93DF938C015B01942EE52EFC01C68821
:1022E000D788F08C80E591E00E94EE018F2D0E944E
:1022F0002211C92DDE2D8C179D0708F4EC019E01DB
:10230000A501B6018F2D0E94AC10F801868997892E
:102310008C0F9D1F978B868BCE01DF91CF911F91E4
:102320000F91FF90EF90DF90CF90BF90AF909F9074
:1023300008951F93CF93DF93182F80E591E00E94BB
:10234000EE01812F0E942211EC01812F0E94A90C25
:10235000873121F08C3111F0D0E0C0E0CE01DF9167
:10236000CF911F910895CF93DF93EC018C85883036
:1023700060F40E94AD0C873111F08C3131F48C8502
:102380000E9499118115984088F3DF91CF910895AB
:10239000FC018485883010F40C94991190E080E061
:1023A0000895CF92DF92EF92FF921F93CF93DF9326
:1023B000182F7B01EA014130584010F0C0E0D8E00E
:1023C00080E591E00E94EE01812F0E9422116C01B4
:1023D000812F0E94A90C873111F08C3121F5CC1688
:1023E000DD0670F380E591E00E94EE019E01A701F9
:1023F00070E060E0812F0E94AC1060E270E0812FFD
:102400000E94430C62E070E0812F0E94260C84FD44
:102410000DC0812F0E94A90C8823B9F080E591E0BE
:102420000E94EE01EFCFD0E0C0E0DCCF40E162E0FF
:1024300070E0812F0E943506CE01DF91CF911F9170
:10244000FF90EF90DF90CF900895D0E0C0E0F4CF00
:102450000F931F93CF93DF938C01EA01FC018485D6
:10246000883048F40E94D111892B39F481E090E042
:10247000F80193838283D0E0C0E0CE01DF91CF9159
:102480001F910F910895FF920F931F93CF93DF93A6
:102490001F921F92CDB7DEB7F82E22E030E0AE01DA
:1024A0004F5F5F4F66E270E00E94770F09811A81EB
:1024B00010270127102722E030E0AE014F5F5F4F69
:1024C00066E270E08F2D0E94770F89819A819827AC
:1024D000892798270817190749F4C8010F900F900A
:1024E000DF91CF911F910F91FF9008958C01E3CF61
:1024F0001F93CF93DF93182F87E0189FE0011124DB
:10250000C052DC4F88819981009761F480E591E0A9
:102510000E94EE01812F0E9443122E81821B91099D
:1025200099838883DF91CF911F9108959F92AF92F5
:10253000BF92CF92DF92EF92FF920F931F93CF93B0
:10254000DF93EC017B0180912C04811121C01B825F
:102550001A8288EE93E0A0E0B0E08C839D83AE8386
:10256000BF838FE792E09983888388E08C8788EE29
:1025700093E09E878D87CE01DF91CF911F910F91C0
:10258000FF90EF90DF90CF90BF90AF909F90089515
:1025900034E0932E833311F028E0922E88E1C82E88
:1025A00084E0D82E10E098E0B92EA12CD6012D9110
:1025B0003D916D01F701848195812817390791F4C8
:1025C000812F0E94AD0C082F873111F08C3139F525
:1025D000812F0E947812892B59F50C3119F4812F23
:1025E0000E94530C1F5F9112E1CFA11008C0D701C8
:1025F000ED91FC910084F185E02DC70119951B82B6
:102600001A8288EE93E0A0E0B0E08C839D83AE83D5
:10261000BF838FE792E099838883BC86A8CF8431FB
:1026200049F08111DFCFF601329711821082DACFA3
:10263000B12ED8CFAA24A394D5CF8F929F92AF92D8
:10264000BF92CF92DF92EF92FF920F931F93CF939F
:10265000DF93CDB7DEB72F970FB6F894DEBF0FBE6E
:10266000CDBF5C014B017A0180912C048823C9F114
:1026700004E0833309F008E0B501CE0101960E9421
:10268000961288E1C82E84E0D82E10E0F601219140
:1026900031916F01F501848195812817390751F433
:1026A000812F0E94AD0C873129F4A701B401812F3D
:1026B0000E94D1111F5F0113E9CFC7012F960FB6FA
:1026C000F894DEBF0FBECDBFDF91CF911F910F9168
:1026D000FF90EF90DF90CF90BF90AF909F908F9042
:1026E0000895F12CE12CE9CFFC018485883010F4A9
:1026F0000C94781290E080E008954F925F927F9260
:102700008F929F92AF92BF92CF92DF92EF92FF9201
:102710000F931F93CF93DF931F921F92CDB7DEB716
:10272000782E6B014A01A82EB12C27E0829FC001B0
:102730001124FC01E052FC4F7F010081118180E5F2
:1027400091E00E94EE010815190554F4872D0E94AE
:102750004312F70126818C01021B110911830083AA
:102760000115110519F5872D0E94A90C843159F026
:10277000882349F001E010E08C3111F410E000E012
:10278000119501951109C8010F900F90DF91CF911C
:102790001F910F91FF90EF90DF90CF90BF90AF907F
:1027A0009F908F907F905F904F9008958016910634
:1027B0000CF4840187E08A9DF0018B9DF00D1124BB
:1027C000E052FC4FE280F380C114D10451F12701A3
:1027D000F7E05F22872D0E94EA05840D951D209168
:1027E0002C04273309F453C09801240D351D2130E2
:1027F000384008F44CC020E038E0490184189508BE
:10280000A401B6010E949B0B2601480C591C6801CB
:10281000C818D908872D0E94EA05A601B2010E94B6
:102820009B0BE00EF11E87E08A9DF0018B9DF00D61
:102830001124E052FC4FF382E28220813181201B7F
:10284000310B318320838681800F912F911D8A3F28
:10285000910510F4232BF1F487E08A9DF0018B9D04
:10286000F00D1124E052FC4F1682F982EA8222E038
:1028700030E0AE014F5F5F4F68E270E0872D0E944D
:10288000F80560E470E0872D0E94430C7CCFA8011E
:10289000B601C5CF868377CFCF93DF93FC01218D1F
:1028A000328D2115310529F48FEF9FEFDF91CF9104
:1028B0000895EC01808D4217530708F0A9010E948A
:1028C0007D131816190684F7298D3A8D281B390BAC
:1028D0003A8F298FEBCF0F931F93CF93DF931F92E4
:1028E000CDB7DEB7FC01218D328D232B41F48FEF64
:1028F0009FEF0F90DF91CF911F910F9108958C0161
:1029000041E050E0BE016F5F7F4FFC01808D0E946F
:102910007D13181619065CF7F801818D928D0197C9
:10292000928F818F898190E0E4CFCF93DF931F92C4
:10293000CDB7DEB741E050E0BE016F5F7F4FFC01D5
:1029400084850E947D131816190634F4898190E05D
:102950000F90DF91CF9108958FEF9FEFF9CFFC019A
:102960008485883010F40C947D1390E080E0089505
:102970008F929F92AF92BF92CF92DF92EF92FF928F
:102980000F931F93CF93DF9300D000D000D01F92FE
:10299000CDB7DEB790912C04911115C018E0812FAE
:1029A0002A960FB6F894DEBF0FBECDBFDF91CF9150
:1029B0001F910F91FF90EF90DF90CF90BF90AF905D
:1029C0009F908F90089528E0F22E933311F494E0B5
:1029D000F92E6B01082F80E591E00E94EE019E0127
:1029E0002F5F3F4F5901490110E0812F0E94A90C30
:1029F000F40181934F018823C1F01F5FF112F5CFDD
:102A0000F12CF50191915F019D3149F0983139F038
:102A10009A51923020F0F3941F11F3CFBFCF60E1B1
:102A200070E08F2D0E94430C1F2DE12EF12CF70139
:102A3000EE0FFF1FE85EFB4F1182108283EE93E0E2
:102A40000197F1F7402F70E060E0812F0E9435067A
:102A50004FEF62E070E0812F0E943506B601CD286D
:102A600089F480911A0290911B0201968115F0EC75
:102A70009F0798F190931B0280931A0260911A02AB
:102A800070911B02812F0E941F0661E070E0812F70
:102A90000E94430C27E02E9DC0012F9D900D112414
:102AA0009C0120523C4F7901F9011182108222E0F1
:102AB00030E0AE01475F5F4F68E270E0812F0E9417
:102AC000770F89859A85982789279827F701938317
:102AD000828316821582148262CF80E090ECCACF86
:102AE0000F931F93CF938C01FC016481758181E268
:102AF0000E94B814C82F8830F8F480E591E00E9455
:102B0000EE018C2F0E94A90C833131F08C2FCF91D4
:102B10001F910F910C94530C62E070E08C2F0E9477
:102B2000430CF80184819581EC2FF0E0EE0FFF1F3C
:102B3000E85EFB4F91838083CF911F910F910895A1
:102B40000F931F93CF93DF93EC018B01888D883017
:102B500010F40E945F0CB80182E00E94B814888FC4
:102B6000883050F41D870C871A8E198E81E0DF9112
:102B7000CF911F910F91089580E0F9CFCF92DF920E
:102B8000EF92FF921F93CF93DF93EC017B016A01D9
:102B90008C85883048F40E94AD0C882319F08C8510
:102BA0000E94530C88E08C87F70182819381A48175
:102BB000B5810097A105B10551F490E080E0DF9167
:102BC000CF911F91FF90EF90DF90CF9008958F3FAE
:102BD0009F4FAF4FBF4F89F370E060E081E20E94EA
:102BE000B814182F8C87883040F780E591E00E9458
:102BF000EE01A7014E5F5F4F24E030E06CE070E033
:102C0000812F0E94F805B601812F0E94090664E019
:102C100070E0812F0E94430C0E9487036B017C01AE
:102C20008C850E94AD0C873111F18C3101F1882324
:102C300021F20E948703AB01BC014C195D096E09AA
:102C40007F098D859E85B0E0A0E084179507A607D3
:102C5000B70738F061E070E080E090E00E94550333
:102C6000DFCF8C850E945F0C88E08C87A6CF81E047
:102C700090E0A5CF0F931F93CF93DF931F921F92E6
:102C8000CDB7DEB7FC0124852830E0F48C0180E567
:102C900091E00E94EE0122E030E0AE014F5F5F4F15
:102CA00060E170E0F80184850E94770F89819A8144
:102CB0009827892798270F900F90DF91CF911F9128
:102CC0000F91089590E080E0F6CF0F931F93CF937C
:102CD000DF931F921F92CDB7DEB7FC012485283009
:102CE000E0F48C0180E591E00E94EE0122E030E00A
:102CF000AE014F5F5F4F64E070E0F80184850E9491
:102D0000770F89819A819827892798270F900F90AC
:102D1000DF91CF911F910F91089590E080E0F6CF61
:102D2000CF92DF92EF92FF920F931F93CF93DF9397
:102D300000D000D0CDB7DEB78C019FEBE92E92E03A
:102D4000F92EFA82E9828091040590910505A091FF
:102D50000605B09107058B839C83AD83BE83CE01AE
:102D600001960E94670DFA82E9821B821C821D82F5
:102D70001E8280E591E00E94EE0144E050E0BE0139
:102D80006D5F7F4F8FE090E00E949B0B40910405A8
:102D90005091050560910605709107058B819C8116
:102DA000AD81BE8198012F5B3F4F790148175907CC
:102DB0006A077B0709F077C081E0D9018C93D701BE
:102DC0008C91882309F45EC086E090E00E94A628DA
:102DD000FC011382128222E332E03183208328E94E
:102DE0003FE135832483D8018D939C930E94701515
:102DF00088EB92E2F8019583848386E090E00E945C
:102E0000A628FC018FEBC82E82E0D82ED182C0828A
:102E100088EC828380EA838387E084838AEB8583DE
:102E2000D8011796FC93EE9316978BE190E00E94E1
:102E3000A628FC011382128288EE93E0A0E0B0E0A5
:102E400084839583A683B78385E592E0918380830D
:102E5000D786C686108A118A128A138A88E0808FE4
:102E6000D8011396FC93EE93129768EB72E2CF01B0
:102E70000E94A015F801EE5BFF4F1182108232967E
:102E800011821082F701808126960FB6F894DEBF7A
:102E90000FBECDBFDF91CF911F910F91FF90EF90AB
:102EA000DF90CF900895F901108289CFCF92DF9201
:102EB000EF92FF920F931F93CF93DF9300D000D038
:102EC000CDB7DEB7FC01A281B381109769F08C0108
:102ED0007C01F2E4EF0EF11CF701808191810097F3
:102EE00091F0019709F469C026960FB6F894DEBFF9
:102EF0000FBECDBFDF91CF911F910F91FF90EF904B
:102F0000DF90CF900895F80126813781A801445FB2
:102F10005F4F8CE2FA0111928A95E9F783EEF8018E
:102F20008087118686E082878CEE838781E3848B9D
:102F30009EE4958B868B84E3878BED91FC911197B2
:102F4000C488D5888FEB92E09A838983F901428106
:102F50005381648175814B835C836D837E834BE7F2
:102F600050E0BE016F5F7F4FCD01F6011995D8018A
:102F700012968D919C91B801685F7F4FDC01ED91B5
:102F8000FC910280F381E02D40E350E01995F801B7
:102F900082819381DC01ED91FC91008CF18DE02D1B
:102FA0001995F70180819181019691838083F801C1
:102FB000EC5BFF4F1182108297CFED91FC9111973E
:102FC000028CF38DE02DCD011995F801892B99F430
:102FD000EC5BFF4F20813181C90101969183808391
:102FE000329680819181821793070CF07DCFD701B3
:102FF0001D921C9279CF82819381B801685F7F4FC7
:10300000DC01ED91FC91048CF58DE02D40E350E066
:103010001995F80160A971A976276727762790E0AE
:1030200080E0CB017727662702A913A91027012783
:10303000102730E020E0602B712B822B932B605BFC
:10304000784A8A4A93480E94C6064ECF0F931F9330
:10305000CF93DF9300D000D01F921F92CDB7DEB781
:103060008C01D80159964D915C915A9741155105A3
:1030700051F0ED91FC91048CF58DE02D70E060E055
:10308000C8011995EECFF801808D0E947812892B26
:10309000B1F148E050E0BE016F5F7F4FD801589614
:1030A0008C910E947D1318161906F4F4D8015096DD
:1030B00084E0FE01319601900D928A95E1F78D81B1
:1030C00090E0982F88272E81820F911DF801958B13
:1030D000848B8F81282F30E0322F22278885820F22
:1030E000932F911D928F818F28960FB6F894DEBF93
:1030F0000FBECDBFDF91CF911F910F91089590E04A
:1031000080E0F2CF4F925F926F927F928F929F9268
:10311000AF92BF92CF92DF92EF92FF920F931F93E5
:10312000CF93DF93CDB7DEB763970FB6F894DEBFCA
:103130000FBECDBF7C016B013A01FB0120E090E0A6
:1031400080E06AE03191332309F461C040ED430F20
:103150004A3008F04DC0689FA001699F500D1124AE
:10316000CA01C097830F911D37FD9A958F3F910536
:1031700049F340F3F7014281538164817581809165
:10318000E0049091E104A091E204B091E3044817B7
:1031900059076A077B0709F40DC28701085F1F4FB3
:1031A0000E9487036F7077277C5FC8010E94A0157B
:1031B000813009F004C28FEB92E09A838983F70192
:1031C00082819381A481B5818B839C83AD83BE83EF
:1031D00045E350E0BE016F5F7F4FC8010E94740657
:1031E000892BA9F5D12CC12CC8010E946B0C17C0EA
:1031F0003E3209F0BFCF233009F4BCCFD301A20F78
:10320000B11D12968C932F5F90E080E09BCF23300E
:1032100009F0B0CFF3018583CC24C394D12CC6012F
:1032200063960FB6F894DEBF0FBECDBFDF91CF918E
:103230001F910F91FF90EF90DF90CF90BF90AF90D4
:103240009F908F907F906F905F904F9008950E9415
:103250008703F7017783668342E050E0B7016A5F36
:103260007F4FC8010E945F1181E090E09A838983BB
:1032700042E050E0BE016F5F7F4FC8010E945F11C6
:1032800080E091E09A83898342E050E0BE016F5F65
:103290007F4FC8010E945F111A82198242E050E0FC
:1032A000BE016F5F7F4FC8010E945F1142E050E096
:1032B000BE016F5F7F4FC8010E945F1142E050E086
:1032C000BE016F5F7F4FC8010E945F115601F6017A
:1032D0008081882301F16501F60181912F01882306
:1032E00011F08E32B1F446018A189B0818141904A3
:1032F00074F48D8641E050E0BE01635F7F4FC801EA
:103300000E945F11A401B501C8010E945F11520122
:10331000DECF6201E1CF1D8641E050E0BE01635F78
:103320007F4FC8010E945F11C12CDD24D394DA8243
:10333000C98242E050E0BE016F5F7F4FC8010E942A
:103340005F11DA82C98242E050E0BE016F5F7F4FB9
:10335000C8010E945F11C8010E94780C892B09F4F2
:1033600041CFF3E0AF2EB12C230122E0420E511CDD
:10337000D4C0F7014281538164817581808D918D24
:10338000A28DB38D481759076A077B0709F008C15A
:10339000848D958DC59709F003C181A192A15DEF40
:1033A000C52EDD24DA940C970CF4ADC04CE050E04F
:1033B000BE016F5F7F4FC8010E944C148B819C81BE
:1033C0009827892798279A8B898BF70146815781FF
:1033D00029813A814217530709F0E7C097FFE5C0FA
:1033E0008F7092703BEFC32EDD24DA94892B09F0A5
:1033F0008AC06F8078847624672476242AEFC22ED0
:10340000DD24DA946114710409F47DC0D12CC12C3F
:103410008D819E81982789279827C816D906F8F4A8
:1034200041E050E0BE01635F7F4FC8010E944C1431
:103430004D85442331F050E070E060E0C8010E9407
:103440004C148D858111ECCF44E050E070E060E0D9
:10345000C8010E944C14FFEFCF1ADF0AD9CF912C7C
:10346000812C41E050E0BE016D5E7F4FC8010E949B
:103470004C144B89842F807C09F06CC0442331F0BC
:1034800050E070E060E0C8010E944C148B8981110B
:10349000E8CF42E050E0BE01615F7F4FC8010E946B
:1034A0004C1442E050E0BE01635F7F4FC8010E94B0
:1034B0004C1444E050E070E060E0C8010E944C14FD
:1034C00042E050E0BE016F5E7F4FC8010E944C1485
:1034D0008F85988949895A898115914009F043C09F
:1034E000CD84DE84DC24CD24DC2481E0C816D10424
:1034F000D1F54115544009F04AC044E050E0B20112
:10350000C8010E944C1421E0A21AB10809F46CCE43
:10351000FFEFCF16DF0609F067CE0E9487033B015D
:103520004C01C8010E942618181619060CF421CF68
:103530000E948703661977098809990969387341D8
:103540008105910548F562E370E080E090E00E941B
:103550005503E7CF41E050E070E060E0C8010E9411
:103560004C141B8A93CF54274527542770E060E002
:10357000C8010E944C14FFEF8F1A9F0A6814790447
:1035800009F06FCF96EFC92EDD24DA94BCCFE7EFB8
:10359000CE2EDD24DA94B7CFCC24CA94DC2CB3CF62
:1035A0006EEFC62EDD24DA94AECF4CEFC42EDD24B0
:1035B000DA94A9CF8EEFC82EDD24DA9430CED12C48
:1035C000C12C2DCECF92DF92EF92FF920F931F93DB
:1035D000CF93DF93CDB7DEB7AF970FB6F894DEBFCA
:1035E0000FBECDBF7C016A010FEB12E01A83098385
:1035F0001C861B8688EE93E0A0E0B0E08D879E8756
:10360000AF87B88B85E592E09A878987188F0F8BF3
:10361000198E1A8E1B8E1C8E88E089A31BA70AA701
:103620001CA61DA61EA61FA68091EC049091ED0479
:10363000A091EE04B091EF048EA39FA3A8A7B9A711
:103640008B839C83AD83BE8318861F82AE01465D4B
:103650005F4FCE0101960E94821881309105B1F42E
:10366000D701ED91FC910488F589E02D1DA30CA3F1
:103670008CA59DA5AEA5BFA58EA39FA3A8A7B9A7FE
:10368000A601BE016C5D7F4FC7011995AF960FB6BD
:10369000F894DEBF0FBECDBFDF91CF911F910F9188
:1036A000FF90EF90DF90CF900895CF92DF92EF924E
:1036B000FF920F931F93CF93DF93CDB7DEB7AF97F2
:1036C0000FB6F894DEBF0FBECDBF8C016B017A013F
:1036D0008FEB92E09A8389831B821C821D821E825B
:1036E0001C861B8648EE53E060E070E04D875E87E5
:1036F0006F87788B25E532E03A872987988F8F8B03
:10370000198E1A8E1B8E1C8E28E029A39BA78AA7D0
:103710001CA61DA61EA61FA6D8011C968C9188303B
:1037200060F40E94AD0C882321F0F80184850E948A
:10373000530C88E0D8011C968C938091EC049091F6
:10374000ED04A091EE04B091EF048EA39FA3A8A76F
:10375000B9A78B839C83AD83BE8318861F82AE017D
:10376000465D5F4FB601CE0101960E948218009718
:10377000C1F0D801ED91FC910684F785E02D8FEB27
:1037800092E09DA38CA38CA59DA5AEA5BFA58EA3FD
:103790009FA3A8A7B9A7A701BE016C5D7F4FC80171
:1037A0001995AF960FB6F894DEBF0FBECDBFDF916F
:1037B000CF911F910F91FF90EF90DF90CF900895E0
:1037C000EF92FF920F931F93CF93DF9300D01F923E
:1037D000CDB7DEB78C017B01FB0184858830A8F072
:1037E0008FEB92E0F801918380831282138214821E
:1037F0001582C8010F900F900F900F90DF91CF911D
:103800001F910F91FF90EF90089580E591E00E9445
:10381000EE0124E030E0AE014F5F5F4F6CE070E0FE
:10382000F70184850E94770F8FEB92E0F801918376
:10383000808389819A81AB81BC8182839383A483B5
:10384000B583D7CF8F929F92AF92BF92CF92DF92E4
:10385000EF92FF920F931F93CF93DF93DC01DA96E1
:10386000EC91E154E33108F062C08B01EC010E2EC3
:10387000000CFF0B8827E05CF34E8F4F0C948A28D6
:10388000531CA41C001D501D9A1D971C971CB61D8F
:10389000D21D031E4A1E971C971C971C971C971C31
:1038A000971C971CBA1EE090CF03F090D003E11450
:1038B000F104E9F16BAD7CAD6630710550F44DADAE
:1038C0005EADC7010E94060962E773E0C8010E946D
:1038D000D229D7015496ED91FC915597178E168EEB
:1038E00010A211A212A213A28FEF9FEF938F828FCB
:1038F00081E090E0918F808F16A61D9622E1E20E66
:10390000F11C8D91811113C0EA16FB06D1F7309797
:1039100071F0178216821186108616861786108A15
:10392000118A118E108E138E128E158E148EDF91C9
:10393000CF911F910F91FF90EF90DF90CF90BF90AC
:10394000AF909F908F900895E091CF03F091D003B6
:10395000309769F38BAD9CAD8630910560F46DAD09
:103960007EAD009749F5CF010E94BD0862E773E084
:10397000C8010E94D229A091CF03B091D0035496E0
:10398000ED91FC915597178E168E10A211A212A2DE
:1039900013A28FEF9FEF938F828F81E090E0918F42
:1039A000808F16A6ED012D96529689918111BFCF79
:1039B000AC17BD07D1F7ABCFDF01A80FB91F21E0CE
:1039C0006115710509F420E01C962C93C289D389F6
:1039D0007C01A1E0EA1AF108672B79F09C01220F23
:1039E000331FE20FF31F608171810E94F101AC016E
:1039F000B701CE010E949508B9CF70E060E0F5CF25
:103A0000E091CF03F091D003309709F490CF8BADC4
:103A10009CAD8630910508F08ACF009729F5838503
:103A20008F9382858F9381858F9380858F938781F4
:103A30008F9386818F9385818F9384818F938381E8
:103A40008F9382818F9383EC92E09F938F931F9348
:103A50006F930E94D929EDB7FEB73E960FB6F89442
:103A6000FEBF0FBEEDBF63CF9C01220F331FE20FDD
:103A7000F31F21812F9320812F939F938F938BEEA0
:103A800092E09F938F931F936F930E94D9298DB7D4
:103A90009EB708960FB6F8949EBF0FBE8DBF47CF56
:103AA000E091CF03F091D003309709F440CF8BAD74
:103AB0009CAD8630910508F03ACF009701F58189D9
:103AC0001F928F9380891F928F9387851F928F9368
:103AD00086851F928F9385851F928F9384EF92E046
:103AE0009F938F931F936F930E94D929ADB7BEB751
:103AF0001E960FB6F894BEBF0FBEADBF18CFE80F2D
:103B0000F91F8485882399F082E793E09F938F9330
:103B100082E193E09F938F931F930F930E94D92983
:103B20000F900F900F900F900F900F9000CF81EC9F
:103B300092E0ECCF8DAD9EADE091CF03F091D0033C
:103B40000488F589E02D95A784A762E773E0C80192
:103B5000DF91CF911F910F91FF90EF90DF90CF9069
:103B6000BF90AF909F908F900C94D2298BAD9CAD5D
:103B70009C01215031092330310508F0D8CE209125
:103B8000D1033091D2032115310509F4D0CE4DADCA
:103B90005EAD0D96880F991F820F931FFC01518314
:103BA0004083D3CFEBACFCACC7010197039708F07F
:103BB000BECEC090D103D090D203C114D10409F479
:103BC000B6CE0DACDEADC02DD6018D919C910E947C
:103BD000AB02892B09F4B9CFCD2B51F0EE0CFF1CB1
:103BE000F601EE0DFF1D828D938D938B828BADCFF1
:103BF000B9E0EB0EF11CEE0CFF1CF601EE0DFF1D03
:103C000011821082A2CF8BAD9CAD8430910508F05B
:103C10008ECEE091D103F091D2030097E9F4818D2B
:103C20008F93808D8F9387898F9386898F938589D2
:103C30008F9384898F9389E193E09F938F931F9350
:103C40006F930E94D929EDB7FEB73A960FB6F89454
:103C5000FEBF0FBEEDBF6BCE9C01275F3F4F220F13
:103C6000331FE20FF31F21812F9320812F939F9306
:103C70008F9381E393E09F938F931F936F930E94A1
:103C8000D9298DB79EB708960FB6F8949EBF0FBE80
:103C90008DBF4DCE8BAD9CAD8430910508F047CEE5
:103CA000E090D103F090D2030097D9F5D7011A968E
:103CB000ED91FC9180810E9482026C01D7011896DF
:103CC000ED91FC9180810E948202EC01D701169651
:103CD000ED91FC9180810E9482029C0191E0CD28AF
:103CE00009F090E01F929F9391E0CD2B09F090E0B6
:103CF0001F929F9391E0232B09F090E01F929F93D6
:103D00008AE393E09F938F931F930F930E94D92987
:103D1000EDB7FEB73A960FB6F894FEBF0FBEEDBFF3
:103D200006CE0296880F991F8E0D9F1DDC01ED9126
:103D3000FC9180810E948202892BC9F482E793E082
:103D40009F938F938CAD8F938BAD8F938CE493E087
:103D50009F938F931F930F930E94D929EDB7FEB7BE
:103D600038960FB6F894FEBF0FBEEDBFE0CD81ECE4
:103D700092E0E6CF0E94EB068091C5039091C603C6
:103D8000029709F0D4CD0E94EB066B017C010E94E2
:103D900031078090A803C701B6010E9431079090B7
:103DA000A903C701B6010E943107A090AA03C70169
:103DB000B6010E943107C091AE03D0E0CE54D84F77
:103DC000C701B6010E943107B090AD03C701B6012B
:103DD0000E9431071F928F921F929F921F92AF9263
:103DE000DF93CF931F92BF928091AC031F928F936A
:103DF00083E593E09F938F931F930F930E94D9299C
:103E00008DB79EB740960FB6F8949EBF0FBE8DBF7C
:103E10008ECD0F931F93CF93DF93DC01EC01EF96D0
:103E2000222331F019821882D9961C921E92D897BB
:103E3000088119810730110508F058C0F80188275A
:103E4000EB5DF04E8F4F0C948A282C1F4D1F5C1F8A
:103E5000681F7B1F871F871FD896ED91FC91D9970C
:103E6000E25CFD4F8081861721F0D9961C921E924C
:103E7000D897D8968D919C91D9970196D9969C9375
:103E80008E93D897825C9D4FFC01808181112EC05A
:103E900081E090E09983888329C0DA966C9382E070
:103EA00090E09983888361E773E0CA01DF91CF9145
:103EB0001F910F910C94D229262F660F330B20539C
:103EC0003109DC963C932E93DB9783E090E0E2CFC0
:103ED00084E090E06D33F1F2BA018D01CD010E94D2
:103EE000221CF80111AE10AE19821882DF91CF9119
:103EF0001F910F910895262F660F330B2053310920
:103F0000DE963C932E93DD9785E090E0C3CF80ED65
:103F1000860F8A3008F5DD962D913C91DE977AE088
:103F2000729FC001739F900D1124262F660F330BD3
:103F300020533109280F391FDE963C932E93DD97CD
:103F40000F5F1F4F19830883BA01CD01DF91CF9115
:103F50001F910F910C94221C663229F481E090E0AD
:103F600099838883F1CFD9961C921E92D897198293
:103F70001882EACF1F920F920FB60F9211240BB640
:103F80000F922F933F934F935F936F937F938F93F2
:103F90009F93AF93BF93EF93FF93E0911802F0913B
:103FA00019021995FF91EF91BF91AF919F918F9158
:103FB0007F916F915F914F913F912F910F900BBE29
:103FC0000F900FBE0F901F9018951F920F920FB673
:103FD0000F9211240BB60F922F933F934F935F9341
:103FE0006F937F938F939F93AF93BF93EF93FF93C1
:103FF000E0911602F09117021995FF91EF91BF9190
:10400000AF919F918F917F916F915F914F913F9170
:104010002F910F900BBE0F900FBE0F901F90189511
:104020001F920F920FB60F9211240BB60F922F937F
:104030003F934F935F936F937F938F939F93AF9330
:10404000BF93EF93FF93E0910C02F0910D0219954D
:10405000FF91EF91BF91AF919F918F917F916F9160
:104060005F914F913F912F910F900BBE0F900FBE1C
:104070000F901F9018951F920F920FB60F92112458
:104080000BB60F922F933F934F935F936F937F9352
:104090008F939F93AF93BF93EF93FF93E0910A02A7
:1040A000F0910B021995FF91EF91BF91AF919F9104
:1040B0008F917F916F915F914F913F912F910F90D1
:1040C0000BBE0F900FBE0F901F9018951F920F926E
:1040D0000FB60F9211240BB60F922F933F934F936D
:1040E0005F936F937F938F939F93AF93BF93EF9360
:1040F000FF93E0911402F09115021995FF91EF9151
:10410000BF91AF919F918F917F916F915F914F91EF
:104110003F912F910F900BBE0F900FBE0F901F90ED
:1041200018951F920F920FB60F9211240BB60F9293
:104130002F933F934F935F936F937F938F939F93AF
:10414000AF93BF93EF93FF93E0911202F0911302AC
:104150001995FF91EF91BF91AF919F918F917F91B1
:104160006F915F914F913F912F910F900BBE0F90E8
:104170000FBE0F901F9018951F920F920FB60F92BF
:1041800011240BB60F922F933F934F935F936F932E
:104190007F938F939F93AF93BF93EF93FF93E091A0
:1041A0001002F09111021995FF91EF91BF91AF911B
:1041B0009F918F917F916F915F914F913F912F913F
:1041C0000F900BBE0F900FBE0F901F9018951F926F
:1041D0000F920FB60F9211240BB60F922F933F93AD
:1041E0004F935F936F937F938F939F93AF93BF93FF
:1041F000EF93FF93E0910E02F0910F021995FF915A
:10420000EF91BF91AF919F918F917F916F915F914E
:104210004F913F912F910F900BBE0F900FBE0F90BB
:104220001F9018951F920F920FB60F9211242F9383
:104230003F938F939F93AF93BF938091D8039091B7
:10424000D903A091DA03B091DB033091D70323E0C7
:10425000230F2D3758F50196A11DB11D2093D703CB
:104260008093D8039093D903A093DA03B093DB0330
:104270008091DC039091DD03A091DE03B091DF0318
:104280000196A11DB11D8093DC039093DD03A093E3
:10429000DE03B093DF03BF91AF919F918F913F9168
:1042A0002F910F900FBE0F901F90189526E8230FA7
:1042B0000296A11DB11DD2CF1F920F920FB60F9281
:1042C00011240BB60F922F933F934F935F936F93ED
:1042D0007F938F939F93AF93BF93EF93FF9385E368
:1042E00094E00E94DA03FF91EF91BF91AF919F910B
:1042F0008F917F916F915F914F913F912F910F908F
:104300000BBE0F900FBE0F901F9018951F920F922B
:104310000FB60F9211240BB60F922F938F939F938A
:10432000EF93FF93E0914504F09146048081E09182
:104330004B04F0914C0482FD1DC0908180914E048D
:104340008F5F8F7320914F04821741F0E0914E04EC
:10435000F0E0EB5CFB4F958F80934E04FF91EF9163
:104360009F918F912F910F900BBE0F900FBE0F90CA
:104370001F9018958081F2CF1F920F920FB60F9267
:1043800011240BB60F922F933F934F935F936F932C
:104390007F938F939F93AF93BF93EF93FF93E0919E
:1043A000C303F091C4031995FF91EF91BF91AF91B1
:1043B0009F918F917F916F915F914F913F912F913D
:1043C0000F900BBE0F900FBE0F901F901895EFE24D
:1043D000F4E08FEB92E09183808312821382148247
:1043E0001582E5E3F4E01382128248EE53E060E0C8
:1043F00070E044835583668377832DEA32E031830E
:10440000208325EC30E03587248724EC30E03787A3
:10441000268720EC30E0318B208B21EC30E0338B91
:10442000228B22EC30E0358B248B26EC30E0378B6E
:10443000268B118E128E138E148EE2EDF4E0918392
:1044400080831282138214821582E8EDF4E0918356
:1044500080831282138214821582EEEDF4E0918340
:1044600080831282138214821582E4EEF4E0918339
:1044700080831282138214821582E0EFF4E091832C
:1044800080831282138214821582EAEEF4E0918313
:1044900080831282138214821582E6EFF4E0918306
:1044A00080831282138214821582ECEFF4E09183F0
:1044B00080831282138214821582E8E0F5E09183F2
:1044C00080831282138214821582E2E0F5E09183E8
:1044D000808320EC228328EA238321E0248321EBBC
:1044E0002583E4E1F5E091838083128213821482B4
:1044F0001582EEE0F5E09183808388EC828380EA88
:104500008383148288E085830895CF93DF93CDB7AA
:10451000DEB7C357D1090FB6F894DEBF0FBECDBFCB
:10452000789484B5826084BD84B5816084BD85B58E
:10453000826085BD85B5816085BD80916E0081609A
:1045400080936E0010928100809181008260809340
:104550008100809181008160809381008091800042
:104560008160809380008091B10084608093B1006D
:104570008091B00081608093B00080919100826052
:10458000809391008091910081608093910080914F
:1045900090008160809390008091A1008260809360
:1045A000A1008091A10081608093A1008091A00072
:1045B00081608093A000809121018260809321011D
:1045C000809121018160809321018091200181608F
:1045D0008093200180917A00846080937A0080919A
:1045E0007A00826080937A0080917A008160809363
:1045F0007A0080917A00806880937A001092C100DE
:1046000060ED77E080E090E00E945503E091450482
:10461000F091460482E08083E0914104F0914204ED
:104620001082E0914304F091440487E68083109265
:104630004D04E0914904F0914A0486E08083E091C2
:104640004704F0914804808180618083E0914704B1
:10465000F0914804808188608083E0914704F09164
:104660004804808180688083E0914704F091480489
:1046700080818F7D808364E773E085E394E00E940E
:10468000C40A6BE873E085E394E00E94C40A61E029
:104690008DE00E94FF0286E190E00E94A6287C0146
:1046A0008EE290E00E94A6288C0188E999E0D8016A
:1046B0009D969C938E939C9782E799E09B969C9302
:1046C0008E939A9784E190E01B969C938E931A9711
:1046D00080E0882E82E0982E6801B12CA12CF50193
:1046E000EE0FFF1FE00FF11F15861486D4018C9189
:1046F00011969C91B2E08B0E911CD6018C93119671
:104700009C93B2E0CB0ED11CD6015F961C921E92F8
:104710005E97178A168A61E00E94FF02BFEFAB1A0C
:10472000BB0AE5E0AE16B104D1F660E0D8011A96F6
:104730008C910E94FF02F80142A553A52285338582
:104740002230310509F0E7C150930B0240930A0271
:1047500080916A00836080936A00EC9AD701539637
:104760001C930E9352978FE290E00E94A628FC01C2
:1047700082E290E09183808384E290E0938382835D
:1047800080E290E09583848384EF91E09387828731
:104790008AE090E09587848780EA9FE0A0E0B0E01F
:1047A000828B938BA48BB58B80E69AEEA0E0B0E071
:1047B00084A395A3A6A3B7A388E592E0A0E0B0E008
:1047C00080A791A7A2A7B3A785E090E0978B868BDF
:1047D00081E090E095A784A7178216821186108643
:1047E00016861786108A118A118E108E138E128EDD
:1047F000158E148E178E168E10A211A212A213A25D
:1048000016A6D7015596FC93EE935497F7011C9684
:10481000CD01119211921D92E817F907D1F7F0928C
:10482000D003E092CF0384E290E00E94A6288C019E
:1048300085E090E00E94A628FC0181E080838AE266
:1048400090E0948383838CE290E092838183D8010B
:10485000ED93FC9385E090E00E94A628FC01108275
:1048600086E290E09483838388E290E09283818360
:10487000D8011396FC93EE93129782E090E00E9489
:10488000A6287C018BE190E0F7019183808361E0B1
:104890000E94FF02D8011596FC92EE92149782E0D6
:1048A00090E00E94A6287C0181E290E0F7019183CC
:1048B000808361E00E94FF02D8011796FC92EE927D
:1048C000169782E090E00E94A6287C018FE190E09C
:1048D000F7019183808361E00E94FF02D80119965D
:1048E000FC92EE92189782E090E00E94A6287C014C
:1048F0008DE190E0F7019183808361E00E94FF02E7
:10490000D8011B96FC92EE921A9761E087E10E9413
:10491000FF0261E089E10E94FF028FEF9FEFF80143
:10492000918B808B6801F2E1CF0ED11CF12CE12C30
:10493000A70160E0C8010E944D08D6011D921D929A
:104940006D0117961C921E921697BFEFEB1AFB0A89
:10495000E4E0EE16F10461F7D80193961C921E92E2
:1049600092970E94EB06F801648775878687978780
:104970001093D2030093D10388E490E00E94A6280C
:104980008C01FC01EF5BFF4F10820E949016109388
:10499000CE030093CD031092800080E180938100CC
:1049A00031E03093C1038FB78093C203F89480EA5B
:1049B0009FE09093C0038093BF0390938700809300
:1049C00086008091C2038FBF80918100887F809391
:1049D0008100909181002091C103922B90938100DE
:1049E0008EED99E09093C4038093C30330936F00DE
:1049F00080918100822B809381005CE3252E312CF5
:104A0000AA24AA94BA2C78E7472E512C0E94870337
:104A1000AB01BC018091D3039091D403A091D50345
:104A2000B091D60388519C4FAF4FBF4F48175907DD
:104A30006A077B0708F46EC20E9487036093D30362
:104A40007093D4038093D5039093D60387E10E949B
:104A50008202892B09F09EC089E10E948202892B83
:104A600009F098C08BE10E948202892B09F492C060
:104A700081E20E948202892B09F48CC08FE10E949E
:104A80008202892B09F486C08DE10E948202892B63
:104A900009F480C061E087E10E94D10261E089E110
:104AA0000E94D1020091CF031091D003D8015496F7
:104AB000ED91FC91808D918D228D338D28173907D2
:104AC00009F4ACC1938F828F63EA73E085E394E0CD
:104AD0000E94C40AD8015496ED91FC91808D918D6D
:104AE0000E94420BD8015496ED91FC91808D918DDE
:104AF0008330910509F4E9C10CF076C1813091054C
:104B000009F4A8C1029709F4EFC170E060E0C801A0
:104B10000E94BD0883C12330310559F450930D0222
:104B200040930C0280916A008C6080936A00ED9A39
:104B300015CEC9014297049708F010CE87E1821B79
:104B4000E82FF0E0EE0FFF1FE65FFD4F518340833B
:104B5000843091F08530B9F0833039F0809169006C
:104B6000836080936900E89AF9CD809169008C6038
:104B700080936900E99AF2CD809169008063809307
:104B80006900EA9AEBCD80916900806C809369009E
:104B9000EB9AE4CD0091D1031091D2030E94EB0671
:104BA000D8011C962D913C917B01E21AF30A0E94D8
:104BB000EB06F8016487758786879787FBE0EF1619
:104BC000F10408F06FCF6EE873E085E394E00E9493
:104BD000C40AD80150964D915C91052E000C660BCD
:104BE000770B77FF72C0CB01BA010E941F0B6BE8F5
:104BF00073E085E394E00E94C40A3801B2E16B0ED1
:104C0000711C4801EAE18E0E911C6301D6018D9161
:104C10009D916D010E94420B67E973E085E394E08A
:104C20000E94C40AF601868197810E94420B67E9BF
:104C300073E085E394E00E94C40AC814D90431F7F4
:104C400069E973E085E394E00E94C40AD801929672
:104C50008D919C910E94420B6EE973E085E394E094
:104C60000E94C40AA70170E060E02AE085E394E0B6
:104C70000E94D30AF8014089518982A193A157FD6E
:104C800038C08E0D9F1D93A382A3853893401CF5D9
:104C9000D8018D919C910E94AB02F8014089518905
:104CA000892BB1F560E0C8010E944D08D8015096EB
:104CB0008D919C9197FDF6CE0996880F991F080F4C
:104CC000191FF80111821082EDCE2AE085E394E0ED
:104CD0000E94D30A8CCF60E0C8010E944D08D80121
:104CE00093965C924E9292975196BC92AE92509748
:104CF000D9CE8E199F0997FD08C093A382A3F8010E
:104D000082A193A1892B21F2CDCE13A212A2F7CFBB
:104D1000452BD1F4828193810E94AB020297A1F4CA
:104D2000F8014089518960E0C8010E944D08D8010E
:104D30005096ED91FC9151973996EE0FFF1FE00FC1
:104D4000F11F11821082D0CFF801828193810E94DD
:104D5000AB02D80150964D915C9157FD1BC0FA01F2
:104D6000EE0FFF1FE00FF11F8289938918161906B5
:104D700034F48E199F0997FD2CC0938B828B828906
:104D80009389892B39F460E0C8010E944D08F8012D
:104D9000B18AA08AF12CE12CD3018D919D913D0126
:104DA000892BD1F0F8014089518957FD07C0E416DD
:104DB000F50621F060E0C8010E944D08A70161E0FE
:104DC000C8010E944D08D8015196FC92EE9250976E
:104DD00069CE138A128AD3CFBFEFEB1AFB0AE4E045
:104DE000EE16F104C9F65ECE8430910509F45EC07A
:104DF000059709F08ACE70E060E0C8010E94BD0806
:104E000048E250E064E070E0C8010E94060948E210
:104E100050E065E070E0C8010E9406090091CD03F2
:104E20001091CE03F801EF5BFF4F8081882309F4D6
:104E30006CC08091C7039091C8038031FEE09F074A
:104E40000CF4DAC01092C8031092C703C8010E9484
:104E50005617E0C0F8013D96C801429621912111F4
:104E6000DDCF8E179F07D1F770E060E0C8010E9488
:104E7000BD0846E450E064E070E0C8010E94060905
:104E800046E450E065E070E0C8010E940609D801E0
:104E90005496ED91FC91B1E0B6A784A195A1A6A18D
:104EA000B7A180A391A3A2A3B3A3B8CF70E060E0A1
:104EB000C8010E94BD0846E450E064E070E0C8010B
:104EC0000E94060946E450E0A4CF70E060E0C8010B
:104ED0000E94BD0844E650E064E070E0C8010E9412
:104EE000060944E650E095CFEE24E394F12C44E625
:104EF00050E0B701C8010E940609BFEFEB1AFB0A98
:104F0000E6E0EE16F10499F789CFC8010E949016E9
:104F100081118FCF0E948703AB01BC018091C9032F
:104F20009091CA03A091CB03B091CC0388539F4FBB
:104F3000AF4FBF4F481759076A077B0708F47CC07B
:104F40000E9487036093C9037093CA038093CB03C5
:104F50009093CC03E090CD03F090CE03F701EF5B8C
:104F6000FF4F8081882309F462C0D7016D917C9145
:104F7000CE018B599F4F0E949612E2968FADE29719
:104F8000883008F059C021E0AE014F5F5F4F60E20A
:104F9000C7010E94091F10E000E08CE0C82ED12C50
:104FA000CE018B599F4F0E94E30C882309F470C0F7
:104FB000B1E0CB1AD10809F46BC0CE018B599F4FD9
:104FC0000E947413892B61F3CE018B599F4F0E946D
:104FD0009514D82E0115110591F101301105E9F64E
:104FE000FDE08F17D1F22AE08217C9F121E0AE016E
:104FF0004F5F5F4F682FCCCFB1010E947628892B7D
:1050000049F40E94EB068091C5039091C603029774
:1050100009F01CCFF801EE5BFF4F808191811816DB
:1050200019060CF077CFC8010E94561773CFC7013D
:105030000E949016811199CF0E946904E7CC20E06C
:10504000AE014F5F5F4F682FC7010E94091F91E0BB
:1050500080E0EAE0DE1290E0092F182F9ECFBE011B
:105060006F5F7F4FCE018B599F4F0E94C40A6BE840
:1050700073E0CE018B599F4F0E94C40ABE016F5F3F
:105080007F4F85E394E00E94C40A02E010E085CFE0
:105090006AE070E080E090E00E945503CE018B59F9
:1050A0009F4F0E94050DC8CFA1E21A2EAA1BBB1B61
:1050B000FD010DC0AA1FBB1FEE1FFF1FA217B307E4
:1050C000E407F50720F0A21BB30BE40BF50B661FFA
:1050D000771F881F991F1A9469F7609570958095BE
:1050E00090959B01AC01BD01CF01089597FB072E60
:1050F00016F4009407D077FD09D00E94922807FC8F
:1051000005D03EF4909581959F4F089570956195D7
:105110007F4F0895EE0FFF1F881F8BBF0790F691FA
:10512000E02D1994AA1BBB1B51E107C0AA1FBB1F8E
:10513000A617B70710F0A61BB70B881F991F5A9523
:10514000A9F780959095BC01CD0108950F931F9309
:10515000CF93DF938230910510F482E090E0E091EC
:105160001C05F0911D0530E020E0B0E0A0E0309794
:1051700099F42115310509F44AC0281B390B243054
:105180003105D8F58A819B816115710589F1FB0193
:1051900093838283FE0111C040815181028113817A
:1051A00048175907E0F04817590799F4109761F02C
:1051B00012960C93129713961C933296CF01DF919F
:1051C000CF911F910F91089500931C0510931D0519
:1051D000F4CF2115310551F04217530738F0A901DA
:1051E000DB019A01BD01DF01F801C1CFEF01F9CF69
:1051F00090931D0580931C05CDCFFE01E20FF31F98
:10520000819391932250310939832883D7CF2091FC
:105210001A0530911B05232B41F420912402309173
:10522000250230931B0520931A052091220230910C
:1052300023022115310541F42DB73EB740912602D6
:1052400050912702241B350BE0911A05F0911B05A4
:10525000E217F307A0F42E1B3F0B2817390778F04D
:10526000AC014E5F5F4F2417350748F04E0F5F1FAC
:1052700050931B0540931A05819391939FCFF0E0C3
:10528000E0E09CCFCF93DF930097E9F0FC013297E9
:1052900013821282A0911C05B0911D05ED0130E032
:1052A00020E01097A1F420813181820F931F20917B
:1052B0001A0530911B052817390709F061C0F093D2
:1052C0001B05E0931A05DF91CF910895EA01CE17EF
:1052D000DF07E8F54A815B819E0141155105B1F771
:1052E000E901FB83EA8349915991C40FD51FEC175B
:1052F000FD0761F4808191810296840F951FE90179
:1053000099838883828193819B838A83F0E0E0E0A4
:1053100012968D919C9113970097B9F52D913C9120
:105320001197CD010296820F931F20911A0530919B
:105330001B052817390739F6309751F510921D05CE
:1053400010921C05B0931B05A0931A05BCCFD38304
:10535000C28340815181840F951FC817D90761F41A
:105360004E5F5F4F88819981480F591F5183408359
:105370008A819B81938382832115310509F0B0CF07
:10538000F0931D05E0931C059ECFFD01DC01C0CF0D
:1053900013821282D7CFDC0101C06D93415050407F
:1053A000E0F70895FB01DC0101900D920020E1F788
:1053B00008950F931F93CF93DF93CDB7DEB72E974A
:1053C0000FB6F894DEBF0FBECDBF0E891F8986E0F1
:1053D0008C831A8309838FEF9FE79E838D83AE01B1
:1053E000465E5F4F688D798DCE0101960E94092A35
:1053F0002F813885020F131FF80110822E960FB6E9
:10540000F894DEBF0FBECDBFDF91CF911F910F91FA
:1054100008952F923F924F925F926F927F928F9258
:105420009F92AF92BF92CF92DF92EF92FF920F9333
:105430001F93CF93DF9300D000D000D01F921F9214
:10544000CDB7DEB77C013B018A01FC0117821682D1
:10545000838181FFDDC1CE0101965C01F70193815B
:10546000F30193FD859193FF81913F01882309F416
:1054700053C1853239F493FD859193FF81913F01AA
:10548000853229F4B70190E00E94212CE7CF912CBE
:10549000212C312CFFE1F31538F08B3211F190F40F
:1054A000803209F1833229F137FC3CC020ED280F0E
:1054B0002A3050F536FE20C08AE0989E200D112437
:1054C000922E06C08D3291F0803371F7689430F8D7
:1054D000F30193FD859193FF81913F018111DACF13
:1054E00021C0689431F8689432F8F2CF689433F8A8
:1054F000EFCF689434F8ECCFEAE02E9E200D112413
:10550000222E689435F8E4CF8E3229F436FC04C19B
:10551000689436F8DDCF8C3619F4689437F8D8CF14
:105520008836B1F2982F9F7D95549330E0F0833602
:10553000A1F18337C1F1833509F063C02801F2E09E
:105540004F0E511CF801C080D180692D70E036FCEF
:1055500002C06FEF7FEFC6010E940B2C4C016894D4
:1055600037F882010AC00C5F1F4FFFE3F9838824DC
:105570008394912C6501E89437F833FE2DC0522CAA
:105580008114910471F5552009F468CFB70180E2C8
:1055900090E00E94212C5A94F6CFF80180818983F3
:1055A0000E5F1F4FE4CF2801F2E04F0E511CF801AF
:1055B000C080D180692D70E036FC02C06FEF7FEFB4
:1055C000C6010E94162C4C018201D5CFB70180E2A2
:1055D00090E00E94212C2A942814190409F0B0F7B5
:1055E000CECFF60137FC859137FE81916F01B7016F
:1055F00090E00E94212C51105A94F1E08F1A9108EA
:10560000BFCF843619F0893609F077C0F80137FE2C
:105610006BC060817181828193810C5F1F4FF32D7C
:10562000FF763F2E97FF09C0909580957095619504
:105630007F4F8F4F9F4F689437F82AE030E0A501E5
:105640000E94512CC82ECA188C2C432C36FE0CC03C
:10565000E89440F8C91440F434FE05C032FC03C09D
:10566000F32DFE7E4F2E892C44FEAAC0FE01EC0DC8
:10567000F11D8081803309F09CC0242D297E422EAB
:10568000842D8870582E43FCAAC040FEA4C09C2CD8
:10569000821418F42C0C922C981844FEA6C0B70162
:1056A00080E390E00E94212C42FE09C088E790E050
:1056B00041FE02C088E590E0B7010E94212CC91488
:1056C00008F49FC0CA94D12C9FEFC91AD90ACA0CFA
:1056D000DB1CF60182916F01B70190E00E94212C42
:1056E000AC14BD04B1F74FCF60817181072E000C5F
:1056F000880B990B0E5F1F4F92CFD32CE894D4F8F0
:105700002AE030E08537E1F1232D297FD22E8F3634
:10571000A9F1F0F4883551F1F701868197812B9634
:105720000FB6F894DEBF0FBECDBFDF91CF911F91B2
:105730000F91FF90EF90DF90CF90BF90AF909F9030
:105740008F907F906F905F904F903F902F90089533
:10575000803749F0883701F7D4FE02C06894D2F848
:1057600020E130E00DC06894D4F8F6CF34FE03C0D9
:10577000822F8660D82E20E132E002C028E030E09F
:10578000F801D7FE0FC060817181828193810C5F27
:105790001F4FA5010E94512CC82ECA183D2CE89419
:1057A00037F852CF6081718190E080E00E5F1F4F2B
:1057B000F0CF42FC02C0839463CF8394839460CF84
:1057C000842D867809F45CCFF6CFB70180E290E0B3
:1057D0000E94212C83948214C0F3512C5ECF522C52
:1057E0005818821408F459CFF8CF842D867809F41C
:1057F00066CF8BE241FE80E247FC8DE2B70190E08C
:105800005CCFB70180E390E00E94212C9A9457CF9F
:105810008FEF9FEF84CFFC01059061507040011025
:10582000D8F7809590958E0F9F1F0895FC016150C9
:10583000704001900110D8F7809590958E0F9F1FB2
:1058400008950F931F93CF93DF93182F092FEB0128
:105850008B8181FD09C01FEF0FEF812F902FDF910A
:10586000CF911F910F91089582FF14C02E813F8127
:105870008C819D81281739073CF4E881F981CF019B
:1058800001969983888310838E819F8101969F83DF
:105890008E83E3CFE885F985812F1995892BA1F3B4
:1058A000DACFFA01AA27283051F1203181F1E894AA
:1058B0006F936E7F6E5F7F4F8F4F9F4FAF4FB1E003
:1058C0003ED0B4E03CD0670F781F891F9A1FA11DFE
:1058D000680F791F8A1F911DA11D6A0F711D811DFF
:1058E000911DA11D20D009F468943F912AE0269FC4
:1058F00011243019305D3193DEF6CF010895462F23
:105900004770405D4193B3E00FD0C9F7F6CF462F03
:105910004F70405D4A3318F0495D31FD405241936C
:1059200002D0A9F7EACFB4E0A69597958795779529
:105930006795BA95C9F700976105710508959B01B0
:10594000AC010A2E06945795479537952795BA9539
:10595000C9F7620F731F841F951FA01D0895F89447
:02596000FFCF77
:10596200160018001A001C001E001A021A021A025F
:105972001A021A021A021A021A0200C0DEADBEEFA1
:10598200FEED00001E05800001005E000000000028
:105992000000BE051D134A0849087015B70C47459B
:1059A20054202F3F001F1C1F1E1F1E1F1F1E1F1EC5
:1059B2001F00000000D4055F114A08190215026B8E
:1059C200144E0FA0156B106B0C7406E21A780C269D
:1059D200184C14420832082E082A08000000005D04
:1059E200062812C811B311741395145D0FBE155514
:1059F2001BAF14050DE30CBE06BB06B9065206AF7B
:105A0200066516E01B3A16AB0600000000FC039A7E
:105A12000493034904C403A203B603000000005127
:105A22000B300043313D253033642643323D25306F
:105A320033642643333D253033642643343D2530D9
:105A420033642643353D25303364004325643D25C8
:105A52003033640044313D25642644323D256426BA
:105A620044333D25642644343D25642644353D2592
:105A720064004425643D2564004A313D2530336489
:105A8200264A323D25303364264A333D253033647D
:105A9200004A25643D25303364004B313D256426A0
:105AA2004B323D2564264B333D2564004B25643D36
:105AB200256400253032642F253032642F253032A0
:105AC2006420253032643A253032643A253032641B
:105AD200002D310053616E42696B6573202D204F9A
